:020000040800F2
:10000000800A002001010008D507000887070008C2
:10001000D107000815020008E315000800000000E1
:100020000000000000000000000000009D0D00081E
:1000300061050008000000005D0800080D110008BF
:100040001B0100081B0100081B0100081B01000820
:100050001B0100081B0100081B0100081B01000810
:100060001B0100081B0100081B0100081B01000800
:100070001B0100081B0100081B0100081B010008F0
:100080001B0100081B0100081B0100081B010008E0
:100090001B0100081B0100081B010008D105000816
:1000A0001B010008711100081B0100081B0100085A
:1000B000991100081B0100081B0100081B01000822
:1000C0001B0100081B0100081B0100081B010008A0
:1000D0001B010008B1120008111300081B010008E1
:1000E000CD0500081B0100081B010008DFF80CD03B
:1000F00000F07EF80048004791170008800A0020B1
:100100000648804706480047FEE7FEE7FEE7FEE7B1
:10011000FEE7FEE7FEE7FEE7FEE7FEE71111000857
:10012000ED0000082DE9F05F0546002092469B4651
:1001300088460646814640241BE0284641464746FD
:10014000224600F045F853465A46C01A914110D352
:1001500011461846224600F02CF82D1A67EB0108CC
:100160004F4622460120002100F023F817EB00093A
:100170004E41201EA4F10104DFDC484631462A46E8
:100180004346BDE8F09F30B50B46014600202022D3
:10019000012409E021FA02F59D4205D303FA02F594
:1001A000491B04FA02F52844151EA2F10102F1DCF4
:1001B00030BD202A04DB203A00FA02F1002070470B
:1001C0009140C2F1200320FA03F319439040704795
:1001D000202A04DB203A21FA02F00021704721FA9C
:1001E00002F3D040C2F12002914008431946704703
:1001F000064C074D06E0E06840F0010394E8070074
:1002000098471034AC42F6D3FFF774FF701800081B
:100210009018000800BFFEE710B51021014800F05B
:10022000B0FA10BD0008014010B51021014800F0DF
:10023000A6FA10BD0008014010B500F051FB4FF4C4
:10024000803000F007FC00BF00F062FC0128FBD109
:10025000102000F0EFF9022000F0FAF94FF4E0115D
:100260004FF4803000F03AFC012000F031FC00BF78
:10027000392000F0C5FB0028FAD0022000F03CFC39
:10028000002000F0DBFB4FF4806000F009FC002050
:1002900000F012FC022000F02FFC10BD08B5012177
:1002A000042000F0FDFA10208DF80300BDF80000D6
:1002B00041F602110843ADF8000003208DF802005A
:1002C0006946024800F0D0F908BD0000000801406E
:1002D00008B50121082000F0E3FA10208DF8030092
:1002E000BDF8000040F07F00ADF80000BDF8000050
:1002F0004FF680710843ADF8000003208DF802002E
:100300006946024800F0B0F908BD0000000C014049
:1003100008B50121102000F0C3FA10208DF8030069
:10032000BDF8000040F07F00ADF80000BDF800000F
:100330004FF680710843ADF8000003208DF80200ED
:100340006946024800F090F908BD00000010014025
:1003500010B500F01BFA45F2555000F033FA0620B4
:1003600000F024FA4FF49C7000F026FA10BD000053
:100370001FB50121C80200F093FA0020ADF8060075
:100380006420ADF8080040F2CF20ADF80400002052
:10039000ADF80A008DF80C0001A90E4800F036FFF8
:1003A00019208DF8000001208DF8010002208DF841
:1003B000020001208DF80300684600F017FA0122C0
:1003C0001146044800F016FF0121024800F0F2FE39
:1003D0001FBD0000002C01400EB50121084600F0B1
:1003E0003FFA0020ADF802004FF6FF70ADF80400B0
:1003F0004720ADF800000020ADF806008DF8080099
:1004000069464FF0804000F001FF0121880700F0AD
:10041000D1FE0EBD00B585B0254800F0C3FF012117
:1004200044F2050000F03CFA4FF40070ADF8000013
:1004300003208DF8020018208DF8030069461D483E
:1004400000F012F94FF48060ADF8000003208DF841
:10045000020004208DF803006946164800F004F9F4
:100460004FF4165001900020ADF80800ADF80A00D6
:10047000ADF80C000C20ADF80E000020ADF8100017
:1004800001A90B4801F038F840F22551084800F066
:1004900065FF012240F22551054801F008F80121CD
:1004A000034800F073FF252000F095F905B000BD6A
:1004B000003801400008014000B585B0264800F032
:1004C00071FF0121480400F0CBF90121052000F063
:1004D000E7F90420ADF8000003208DF80200182091
:1004E0008DF8030069461D4800F0BEF80820ADF8FD
:1004F000000003208DF8020004208DF803006946F7
:10050000164800F0B1F84FF4165001900020ADF8F5
:100510000800ADF80A00ADF80C000C20ADF80E0094
:100520000020ADF8100001A90B4800F0E5FF40F2F3
:100530002551094800F012FF012240F225510648DA
:1005400000F0B5FF0121044800F020FF262000F054
:1005500042F905B000BD0000004400400008014021
:10056000704710B504460DE000214FF0804000F0C8
:100570004AFE00BF4FF0804000F028FEB0F57A7FC1
:10058000F8D3641E002CEFD110BD00001CB5074845
:10059000C06806498968CDE900100448436804A191
:1005A0000268094801F020F81CBD0000200000206E
:1005B000252E303564252E303564252E30356425C2
:1005C0002E3035640D0A0000C00000207047000086
:1005D00010B54FF4807000F019F818B14FF4807026
:1005E00000F00EF8802000F011F828B10120034936
:1005F0000870802000F004F810BD000014000020F6
:1006000001490860704700001404014001460020C1
:100610000022074B1B6803EA0102054B14331B68D9
:100620000B4013B10AB1012000E000207047000028
:10063000000401400549096821F01001034A1160D6
:100640001146096801431160704700000020024014
:1006500001460020034A106800F03800084310608B
:1006600070470000002002402DE9F04102460025BD
:100670000026002000230024002791F803C00CF07E
:100680000F0591F803C00CF0100CBCF1000F03D063
:1006900091F802C04CEA050591F800C0BCF1000FCA
:1006A00031D0146800202BE04FF0010C0CFA00F35D
:1006B000B1F800C00CEA03069E4220D183004FF03F
:1006C0000F0C0CFA03F7BC4305FA03FC4CEA0404D4
:1006D00091F803C0BCF1280F06D14FF0010C0CFAC1
:1006E00000FCC2F814C00AE091F803C0BCF1480F46
:1006F00005D14FF0010C0CFA00FCC2F810C0401CF0
:100700000828D1D31460B1F800C0BCF1FF0F34DD6C
:10071000546800202EE000F1080C4FF0010808FAA0
:100720000CF3B1F800C00CEA03069E4221D183000D
:100730004FF00F0C0CFA03F7BC4305FA03FC4CEA2C
:10074000040491F803C0BCF1280F05D100F1080C96
:1007500008FA0CF8C2F8148091F803C0BCF1480FF5
:1007600007D100F1080C4FF0010808FA0CF8C2F8A4
:100770001080401C0828CED35460BDE8F081416150
:1007800070470161704700BFFEE700004CF6CC40A7
:100790000149086070470000003000404AF6AA2076
:1007A000014908607047000000300040014948607E
:1007B0007047000000300040014988607047000029
:1007C00000300040014908607047000000300040E0
:1007D00000BFFEE7704700F01F020121914042096F
:1007E000920002F1E022C2F80011704770B50021BA
:1007F00000230F22C47804B3154C246804F4E06489
:10080000C4F5E064210AC1F10403CA40447804FA43
:1008100003F184781440214309010E4C0678A15558
:10082000047804F01F050124AC4005786D11AD007B
:1008300005F1E025C5F8004109E0047804F01F0542
:100840000124AC40044D0678761145F8264070BD71
:100850000CED00E000E400E080E100E07047000003
:1008600029B1064AD2690243044BDA6104E0034A23
:10087000D2698243014BDA617047000000100240E8
:1008800029B1064A12690243044B1A6104E0034A83
:1008900012698243014B1A61704700000010024048
:1008A00029B1064A92690243044B9A6104E0034A63
:1008B00092698243014B9A61704700000010024028
:1008C00029B1064AD2680243044BDA6004E0034AC5
:1008D000D2688243014BDA6070470000001002408A
:1008E0000F48006840F001000D4908600846406864
:1008F0000C4908400A494860084600680A4908400F
:10090000074908600846006820F48020086008460F
:10091000406820F4FE0048604FF41F008860704774
:10092000001002400000FFF8FFFFF6FE30B5002186
:100930000022002400232D4D6D6805F00C0121B12B
:10094000042905D0082923D105E0294D056022E0BE
:10095000274D05601FE0254D6D6805F47012234D8D
:100960006D6805F48034022505EB92421CB9214DD7
:10097000554305600BE01D4D6D6805F400351DB154
:100980001C4D5543056002E0194D5543056002E0DA
:10099000174D056000BF00BF144D6D6805F0F001F4
:1009A0000909154D6B5C0568DD4045600F4D6D68AC
:1009B00005F4E061090A104D6B5C4568DD40856017
:1009C0000A4D6D6805F46051C90A0B4D6B5C4568B2
:1009D000DD40C560054D6D6805F44041890B074D4C
:1009E0006B5CC568B5FBF3F5056130BD00100240D6
:1009F00000127A0000093D000000002010000020D5
:100A000010B501460022002300204A11012A02D11C
:100A1000094C236806E0022A02D1074C236A01E050
:100A2000054C636A01F01F02012494401C400CB184
:100A3000012000E0002010BD00100240014600200F
:100A4000034A506820F0F0000843506070470000EF
:100A5000001002401149096821F480310F4A1160E9
:100A60001146096821F480211160B0F5803F03D060
:100A7000B0F5802F0ED106E00849096841F48031B5
:100A8000064A116007E00549096841F4A021034ABC
:100A9000116000E000BF00BF70470000001002407E
:100AA00001460020034A506820F4E060084350608B
:100AB000704700000010024001460020034A5068C1
:100AC00020F4605040EAC1005060704700100240BE
:100AD00001490866704700000000424202460020BB
:100AE000044B586820F47C1042EA01031843014B80
:100AF000586070470010024001460020034A5068C9
:100B000020F00300084350607047000000100240CE
:100B100038B5002000900024002500BF3120FFF7E9
:100B20006FFF05460098401C00900098B0F5A06F3C
:100B300001D0002DF2D03120FFF762FF08B101246F
:100B400000E00024204638BD70B50346002007E0D1
:100B50001D58ACB20C542612451C4E55841CA0B234
:100B60009042F5DB70BD00000348008840F0400073
:100B700001490880704700000030014000B587B08F
:100B800001210846FFF78CFE012141F20400FFF726
:100B900087FEA020ADF8180003208DF81A00182059
:100BA0008DF81B0006A92448FFF75EFD4020ADF834
:100BB000180004208DF81B0006A91F48FFF754FDFC
:100BC0001020ADF8180003208DF81A0010208DF8C1
:100BD0001B0006A91848FFF747FD0820ADF81800CC
:100BE00003208DF81A0010208DF81B0006A912486A
:100BF000FFF73AFD0020ADF804004FF48270ADF825
:100C000006000020ADF80800ADF80A00ADF80C00B1
:100C10004FF40070ADF80E001020ADF81000002069
:100C2000ADF8120001A9054800F09AF80121034827
:100C300000F08AF807B000BD000801400030014014
:100C400000BF0849098901F001010029F9D000BF5E
:100C50000449098901F080010029F9D101498989F4
:100C6000C8B27047003001400849888100BF074979
:100C7000098901F002010029F9D000BF034909895F
:100C800001F080010029F9D17047000000300140D7
:100C90000348008840F04000014908807047000088
:100CA0000038004000B587B001218803FFF7D8FD68
:100CB00001210820FFF7F4FD4FF42040ADF81800A3
:100CC00003208DF81A0018208DF81B0006A91C4877
:100CD000FFF7CAFC4FF48040ADF8180004208DF8EF
:100CE0001B0006A91648FFF7BFFC4FF48050ADF873
:100CF000180010208DF81B0006A91148FFF7B4FC5E
:100D00000020ADF80400ADF80600ADF80800ADF81D
:100D10000A00ADF80C004FF40070ADF80E0008208A
:100D2000ADF810000020ADF8120001A9054800F050
:100D300017F80121034800F007F807B000BD0000D4
:100D4000000C01400038004021B1028842F040020E
:100D5000028004E002884FF6BF731A400280704799
:100D600010B50022028802F441520B884C882343BC
:100D70008C882343CC8823430C8923434C89234309
:100D80008C892343CC8923431A430280838B4FF2FF
:100D9000FF74234083830B8A038210BD704710B514
:100DA0001D2000F04FF804461C211D2000F000F922
:100DB00010BD000010B5FFF72FFA08211C48FFF7FF
:100DC000E0FC422000F03EF80446302C01D0002028
:100DD00010BD00F0E1F88021012000F0E9F815488D
:100DE00000F05CF800210E2000F0E2F800210F2056
:100DF00000F0DEF800F078F80021402000F0D8F88C
:100E0000072000F02EF8072000F0B9F8012000F0CC
:100E100035F8142000F08EF8FFF7C1FF00F0C2F89B
:100E20003220FFF79EFB00F007F80120D0E700001A
:100E300000080140400ECF1910B58521012000F0B7
:100E4000B7F810BD70B50446FFF7EEF904F07F0067
:100E5000FFF70AFFFFF7F4FE0546FFF7DDF9284626
:100E600070BD70B504461D20FFF7ECFF64F31F1042
:100E7000C5B229461D2000F09BF870BD70B5044630
:100E80001D20FFF7DFFF00F0F10040EA4400C5B28B
:100E900029461D2000F08CF870BD00002DE9F041BE
:100EA00006460020C00440EA5631F7040D4A0023EC
:100EB0003846FFF737F904460D46200C40EA054056
:100EC000C1B2062000F074F8200A40EA0560C1B201
:100ED000072000F06DF8E1B2082000F069F8BDE8E5
:100EE000F08100000048E80110B523210C2000F03B
:100EF0005FF810BD70B50446F02C00DDF024782CAE
:100F000006DCA4F12D00052190FBF1F0C5B209E04B
:100F1000F02C06DC04F11E000A2190FBF1F0C5B2B2
:100F200000E01B2505F01F0040F020010B2000F021
:100F30003FF870BD10B504469620FFF7DBFF112C7B
:100F40000EDD142C00DD142487214D2000F030F834
:100F5000601FC0B240F08001092000F029F80DE0C8
:100F6000022C00DA022484214D2000F021F8A01E7A
:100F7000C0B240F08001092000F01AF810BD70B531
:100F800004461E20FFF75EFF64F31F10C5B229461A
:100F90001E2000F00DF870BD10B58021012000F07A
:100FA00007F810BD10B58121012000F001F810BD37
:100FB00070B504460D46FFF737F944F08000FFF79F
:100FC00053FE2846FFF750FEFFF726F970BD0000DC
:100FD00070B505460E464FF480711048FFF7D1FBFF
:100FE00000240BE000BF40210D4800F029FA002842
:100FF000F9D0295D0A4800F0F0FA641CB442F1D33C
:1010000000BF4021064800F01BFA0028F9D04FF439
:1010100080710248FFF7B3FB70BD0000000801407B
:101020000038014010B500F001F810BD0CB50020EB
:10103000019000903348006840F4803031490860E6
:1010400000BF3048006800F4003000900198401C58
:101050000190009818B90198B0F5A06FF1D1294816
:10106000006800F4003010B10120009001E0002081
:1010700000900098012843D12348006840F01000F8
:10108000214908600846006820F00300086008460F
:10109000006840F0020008601A484068194948603A
:1010A0000846406848600846406840F480604860F0
:1010B0000846406820F47C1048600846406840F4C8
:1010C000E81048600846006840F08070086000BF83
:1010D0000C48006800F000700028F9D0094840680A
:1010E00020F00300074948600846406840F00200CD
:1010F000486000BF0348406800F00C000828F9D1A0
:101100000CBD0000001002400020024070470000AB
:1011100010B51348006840F0010011490860084606
:101120004068104908400E494860084600680E496A
:1011300008400B4908600846006820F480200860D9
:101140000846406820F4FE0048604FF41F008860A5
:10115000FFF768FF4FF000600449086010BD000011
:10116000001002400000FFF8FFFFF6FE08ED00E06F
:1011700010B50121064800F02CF840B10548008860
:10118000401C044908800121014800F010F810BDFE
:10119000002C01401600002010B50121880700F046
:1011A00018F818B10121880700F001F810BDCA43F2
:1011B0000282704721B1028842F00102028004E0FD
:1011C00002884FF6FE731A40028070470146888CF1
:1011D000704730B50246002000230024158A05EA36
:1011E0000103958905EA010413B10CB1012000E067
:1011F000002030BD1AB183890B43838102E08389CB
:101200008B438381704781847047000000220288ED
:101210001D4B98420ED01D4B98420BD0B0F1804F21
:1012200008D01B4B984205D01A4B984202D01A4B5B
:10123000984204D14FF68F731A404B881A43174BCC
:10124000984207D0164B984204D04FF6FF431A40FD
:10125000CB881A4302808B8883850B8803850A4BD1
:1012600098420BD0094B984208D00E4B984205D0BB
:101270000D4B984202D00D4B984201D10B7A038658
:101280000123838270470000002C0140003401409C
:101290000004004000080040000C00400010004026
:1012A000001400400040014000440140004801405B
:1012B00010B540F22551094800F0CFF868B1074851
:1012C00000F086F90649087001210548FFF780FE05
:1012D00040F22551014800F04AF810BD00380140A5
:1012E0001800002070B505460E4600240BE000BF34
:1012F0004021064800F0A4F80028F9D0295D0348F1
:1013000000F06BF9641CB442F1D370BD00380140A9
:1013100010B540F225510E4800F09FF8B8B10C48C6
:1013200000F056F90B490C4A128888540A48008884
:10133000401C0949088008460088B0F5806F01DB31
:101340000020088040F22551014800F010F810BD3F
:1013500000440040E00000204200002001F4007240
:10136000B2F5007F00D100BFCA430280704710B5BC
:101370000022002340F66A14A14200D100BF0A12E5
:1013800001249440A3B2DC43048010BD21B18289C2
:1013900042F40052828104E082894DF6FF731A40C4
:1013A0008281704710B504462048844209D101214A
:1013B0008803FFF785FA00214FF48040FFF780FA99
:1013C00032E01B48844209D101214804FFF758FA52
:1013D00000214FF40030FFF753FA25E0154884420E
:1013E00009D101218804FFF74BFA00214FF4802036
:1013F000FFF746FA18E01048844209D10121C804D9
:10140000FFF73EFA00214FF40020FFF739FA0BE016
:101410000A48844208D101210805FFF731FA00216A
:101420004FF48010FFF72CFA10BD00000038014087
:101430000044004000480040004C00400050004084
:1014400002460020B1F5007F00D100BF13880B4099
:101450000BB1012000E00020704770B50246002467
:1014600000230025002040F66A16B14200D100BFDB
:10147000C1F3421501F01F03012606FA03F3012D03
:1014800002D19689334006E0022D02D1168A3340FC
:1014900001E0968A33400C12012606FA04F41688FD
:1014A000344013B10CB1012000E0002070BDF0B554
:1014B0000346002400260025002040F66A17B942A2
:1014C00000D100BF1846C1F3421401F01F060127E6
:1014D00007FA06F5012C01D10C3004E0022C01D1F1
:1014E000103000E014301AB107682F43076002E0A3
:1014F0000768AF430760F0BD2DE9F04786B00546A9
:101500000E460024A24600BFA1460027B08900B1C4
:1015100000BF2F462C8A4CF6FF700440F08804432D
:101520002C82AC894EF6F3100440B0883189084310
:10153000718908430443AC81AC8A4FF6FF400440F4
:10154000B0890443AC8201A8FFF7F0F91F48874235
:1015500002D1DDF810A001E0DDF80CA0A88900F4AC
:10156000004040B10AEBCA0000EB0A1031684900A4
:10157000B0FBF1F807E00AEBCA0000EB0A10316893
:101580008900B0FBF1F86420B8FBF0F004012009F9
:10159000642101FB1089A88900F4004040B1322089
:1015A00000EBC900B0FBF1F000F00700044308E0D5
:1015B000322000EB09106421B0FBF1F000F00F00C5
:1015C00004432C8106B0BDE8F087000000380140DC
:1015D00001468888C0F308007047C1F30802828082
:1015E000704700BFFEE700000FB4084B10B504A918
:1015F00002AA039800F01CF8044602A9002000F09B
:10160000C1F8204610BC5DF814FB000085170008E7
:1016100002E008C8121F08C1002AFAD170477047BB
:10162000002001E001C1121F002AFBD17047000019
:101630002DE9FF4F89B09B460446002506E025288A
:101640000BD05A460B999047641C6D1C20780028DB
:10165000F5D10DB02846BDE8F08F0027B84601222D
:10166000474900E0074314F8013F203B02FA03F02A
:101670000842F7D120782E2819D114F8010F47F02D
:1016800004072A280ED06FF02F022078A0F1300135
:1016900009290CD808EB880102EB410100EB010895
:1016A000641CF2E70A98641C50F8048B0A902078B6
:1016B0000028CED0642808D0692806D075281ED00E
:1016C0005A460B9990476D1C58E00A994FF00A0949
:1016D00001C90A91002802DA40422D2102E03905B1
:1016E00004D52B218DF82010012103E0F90704D047
:1016F0002021F7E78A4608AE0DE00021FAE70A99B3
:101700004FF00A0901C90A91F7E74946FEF73BFD88
:10171000303106F8011D0028F7D1ADEB060000F1CD
:101720002009780701D44FF00108C84502DDA8EB75
:10173000090000E000208046002706E008A85A467D
:10174000C05D0B9990476D1C7F1C5745F6DB04E08C
:1017500030205A460B9990476D1CB8F10001A8F152
:101760000108F5DC05E016F8010B5A460B99904785
:101770006D1CB9F10001A9F10109F4DC641C65E7F5
:10178000092801000A68531C0B60107070470000A4
:10179000FEF752FDFEF7DCFDFEF780FDFEF798FD3B
:1017A000FEF7B6FD4FF4C0512A48FEF7E8FFFFF7F9
:1017B000E5F9FFF777FAFFF76BFAFFF7D5F9FEF7D0
:1017C00029FEFEF779FE202223492448FFF7BCF9C1
:1017D000214800682249884202D908461E4908600B
:1017E0001D4840681E49884202D908461A49486087
:1017F000194880681A49884202D908461649886003
:101800001548C0681649884202D908461249C8607E
:10181000FFF7D0FAFEF7BAFEFEF7DEFDFEF7A8FDF1
:1018200017E0FEF7BBFF03214220FFF7C1FB422078
:10183000FFF708FB0B490870084602780AA10B481D
:10184000FFF7D2FE02210948FFF74CFD6420FEF7A6
:1018500088FEE6E7000801402000002000F00008B4
:101860009F8601001C000020256400004800002025
:101870009018000800000020480000001016000822
:10188000D818000848000020380A00002016000878
:101890000000000001020304010203040607080916
:1018A0000204060800000000000000000000000024
:1018B0009F8601009F8601009F8601009F86010090
:1018C0009F8601009F8601009F8601009F86010080
:0818D000000000000000000010
:04000005080000ED02
:00000001FF
