:020000040800F2
:10000000180A002001010008A90900085D0900087C
:10001000A509000833030008CB1400080000000005
:100020000000000000000000000000003B0D000880
:100030000107000800000000310A00082D10000828
:100040001B0100081B0100081B0100081B01000820
:100050001B0100081B0100081B0100081B01000810
:100060001B0100081B0100081B0100081B01000800
:100070001B0100081B0100081B0100081B010008F0
:100080001B0100081B0100081B0100081B010008E0
:100090001B0100081B0100081B010008470700089E
:1000A0001B010008911000081B0100081B0100083B
:1000B000B91000081B0100081B0100081B01000803
:1000C0001B0100081B0100081B0100081B010008A0
:1000D0001B010008C5110008F91100081B010008E8
:1000E000450700081B0100081B010008DFF80CD0C1
:1000F00000F0ACF800480047CD170008180A0020AF
:100100000648804706480047FEE7FEE7FEE7FEE7B1
:10011000FEE7FEE7FEE7FEE7FEE7FEE73110000838
:10012000ED000008421C10F8011B0029FBD1801AC9
:10013000704730B505460020034600E05B1C934243
:1001400005D2EC5CC85C201A01D1002CF6D130BD80
:1001500070B50F4D00B92868002412E00A4602E08D
:100160009E4203D0521C1378002BF9D1DAB22243FD
:1001700005D02BB124B1002100F8011B04E0044696
:10018000401C0678002EE9D12860204670BD000092
:100190005000002070B5064601F0E6F904680546F7
:1001A0000A220021304600F018F82C6070BD30B5EE
:1001B0000B46014600202022012409E021FA02F525
:1001C0009D4205D303FA02F5491B04FA02F52844BF
:1001D000151EA2F10102F1DC30BD2DE9F047914678
:1001E0000F4680460446002614F8015B2DB100F04E
:1001F0003FF80068405DC007F6D12B2D02D02D2DB1
:1002000018D0641E4A463946204600F035F827B11A
:100210003968A14201D1C7F8008071054FF002048E
:100220000BD54042002803DD01F09EF90460A007D1
:10023000BDE8F08746F48066E4E70028F8DA01F0CC
:1002400093F904606FF00040F2E70000064C074DA0
:1002500006E0E06840F0010394E807009847103496
:10026000AC42F6D3FFF746FFD0190008F01900089A
:1002700000487047CC1900082DE9F05F82460078ED
:10028000002715468B460AF10104B946302801D0F3
:100290009DB113E014F8010B0127782803D05828EA
:1002A00001D045B10AE00DB1102D07D1002710256E
:1002B00014F8010B02E0082500E00A250026B046EC
:1002C0000EE005FB080005FB06F1012701EB1046D7
:1002D0001FFA80F8B6F5803F00D3B94614F8010B39
:1002E000294600F018F80028EBDABBF1000F05D022
:1002F0000FB1641E00E05446CBF80040B9F1000F86
:1003000006D001F031F902210160C81EBDE8F09F5E
:1003100048EA0640FAE73A2800D2303820F02002B6
:10032000412A01D3A2F13700884201D34FF0FF30B8
:10033000704700BFFEE7000010B526480068264958
:10034000884246D823480068002842D021484068A7
:1003500088423ED81F48406800283AD01D4880682F
:10036000884236D81B48806898B31A48C0688842CB
:100370002FD81848C06860B3184800681549096844
:10038000884211D1154840681249496888420BD10A
:10039000124880680F498968884205D10F48C068B3
:1003A0000C49C968884214D00A4800680B490860A3
:1003B0000848406848600748806888600548C06809
:1003C000C860074800F0E6F920220449044801F01B
:1003D0007EF810BD780500209F8601001C000020DB
:1003E00000F0000810B500F065FB4FF4803000F01D
:1003F0001BFC00BF00F076FC0128FBD1102000F0B0
:10040000F9F9022000F004FA4FF4E0114FF48030C3
:1004100000F04EFC012000F045FC00BF392000F048
:10042000D9FB0028FAD0022000F050FC002000F098
:10043000EFFB4FF4806000F01DFC002000F026FC74
:10044000022000F043FC10BD08B50121042000F09B
:1004500011FB10208DF80300BDF8000040F0720081
:10046000ADF80000BDF8000040F4CC50ADF800003D
:1004700003208DF802006946014800F0D5F908BD57
:100480000008014008B50121082000F0F3FA10200F
:100490008DF80300BDF8000040F07F00ADF80000CB
:1004A000BDF800004FF680710843ADF8000003204E
:1004B0008DF802006946024800F0B6F908BD000058
:1004C000000C014010B500F04BFA45F2555000F019
:1004D00063FA062000F054FA4FF49C7000F056FACC
:1004E00010BD00001FB50121C80200F0C3FA0020B2
:1004F000ADF806006420ADF8080040F2CF20ADF85A
:1005000004000020ADF80A008DF80C0001A90E4887
:1005100000F006FE19208DF8000001208DF8010082
:1005200002208DF8020001208DF80300684600F0DB
:1005300047FA01221146044800F0E9FD0121024872
:1005400000F0C8FD1FBD0000002C01401FB50121B7
:10055000084600F06FFA0020ADF8060041F288303E
:10056000ADF8080041F61F40ADF804000020ADF8DA
:100570000A008DF80C0001A94FF0804000F0D0FD7A
:100580001C208DF8000001208DF8010002208DF85C
:10059000020001208DF80300684600F011FA0122E4
:1005A0001146900700F0B3FD0121880700F092FD8D
:1005B0001FBD000000B585B0254800F067FE012191
:1005C00044F2050000F056FA4FF40070ADF8000058
:1005D00003208DF8020018208DF8030069461D489D
:1005E00000F022F94FF48060ADF8000003208DF890
:1005F000020004208DF803006946164800F014F943
:100600004FF4165001900020ADF80800ADF80A0034
:10061000ADF80C000C20ADF80E000020ADF8100075
:1006200001A90B4800F0DCFE40F22551084800F01B
:1006300009FE012240F22551054800F0ACFE0121DF
:10064000034800F017FE252000F0AFF905B000BD0B
:10065000003801400008014000B585B0264800F090
:1006600015FE0121480400F0E5F90121052000F004
:1006700001FA0420ADF8000003208DF802001820D4
:100680008DF8030069461D4800F0CEF80820ADF84B
:10069000000003208DF8020004208DF80300694655
:1006A000164800F0C1F84FF4165001900020ADF844
:1006B0000800ADF80A00ADF80C000C20ADF80E00F3
:1006C0000020ADF8100001A90B4800F089FE40F2AF
:1006D0002551094800F0B6FD012240F22551064897
:1006E00000F059FE0121044800F0C4FD262000F06E
:1006F0005CF905B000BD0000004400400008014066
:10070000704700001CB50748C06806498968CDE9F4
:1007100000100448436804A10268094800F010FF73
:100720001CBD00001C000020252E303564252E3015
:100730003564252E303564252E3035640D0A0000D1
:1007400058000020704710B54FF4807000F00EF88C
:1007500028B100F0F9F84FF4807000F001F810BDF6
:100760000149086070470000140401400146002060
:100770000022074B1B6803EA0102054B14331B6878
:100780000B4013B10AB1012000E0002070470000C7
:10079000000401401449096901F0800121B11349A5
:1007A000114A5160124951600F49096941F0020133
:1007B0000D4A116111464861096941F0400111611A
:1007C00000BF0949C96801F001010029F9D10649B2
:1007D000096921F00201044A11611146096921F0F9
:1007E000400111617047000000200240230167456D
:1007F000AB89EFCD0549096821F01001034A11606A
:100800001146096801431160704700000020024052
:1008100001460020034A106800F0380008431060C9
:1008200070470000002002402DE9F04102460025FB
:100830000026002000230024002791F803C00CF0BC
:100840000F0591F803C00CF0100CBCF1000F03D0A1
:1008500091F802C04CEA050591F800C0BCF1000F08
:1008600031D0146800202BE04FF0010C0CFA00F39B
:10087000B1F800C00CEA03069E4220D183004FF07D
:100880000F0C0CFA03F7BC4305FA03FC4CEA040412
:1008900091F803C0BCF1280F06D14FF0010C0CFAFF
:1008A00000FCC2F814C00AE091F803C0BCF1480F84
:1008B00005D14FF0010C0CFA00FCC2F810C0401C2E
:1008C0000828D1D31460B1F800C0BCF1FF0F34DDAB
:1008D000546800202EE000F1080C4FF0010808FADF
:1008E0000CF3B1F800C00CEA03069E4221D183004C
:1008F0004FF00F0C0CFA03F7BC4305FA03FC4CEA6B
:10090000040491F803C0BCF1280F05D100F1080CD4
:1009100008FA0CF8C2F8148091F803C0BCF1480F33
:1009200007D100F1080C4FF0010808FA0CF8C2F8E2
:100930001080401C0828CED35460BDE8F08141618E
:1009400070470161704700000348C06880F40050A0
:100950000149C860704700000010014000BFFEE779
:100960004CF6CC4001490860704700000030004060
:100970004AF6AA2001490860704700000030004094
:10098000014948607047000000300040014988601C
:1009900070470000003000400149086070470000C7
:1009A0000030004000BFFEE7704700F01F02012149
:1009B00091404209920002F1E022C2F80011704712
:1009C00070B5002100230F22C47804B3154C2468AD
:1009D00004F4E064C4F5E064210AC1F10403CA40F0
:1009E000447804FA03F184781440214309010E4C41
:1009F0000678A155047804F01F050124AC40057861
:100A00006D11AD0005F1E025C5F8004109E004785D
:100A100004F01F050124AC40044D0678761145F81A
:100A2000264070BD0CED00E000E400E080E100E055
:100A30007047000029B1064AD2690243044BDA61CB
:100A400004E0034AD2698243014BDA617047000037
:100A50000010024029B1064A12690243044B1A6190
:100A600004E0034A12698243014B1A617047000097
:100A70000010024029B1064A92690243044B9A6170
:100A800004E0034A92698243014B9A617047000077
:100A90000010024029B1064AD2680243044BDA60D2
:100AA00004E0034AD2688243014BDA6070470000D9
:100AB000001002400F48006840F001000D49086036
:100AC000084640680C4908400A49486008460068E2
:100AD0000A490840074908600846006820F4802059
:100AE00008600846406820F4FE0048604FF41F008C
:100AF00088607047001002400000FFF8FFFFF6FE1C
:100B000030B500210022002400232D4D6D6805F032
:100B10000C0121B1042905D0082923D105E0294D74
:100B2000056022E0274D05601FE0254D6D6805F446
:100B30007012234D6D6805F48034022505EB924256
:100B40001CB9214D554305600BE01D4D6D6805F442
:100B500000351DB11C4D5543056002E0194D55434C
:100B6000056002E0174D056000BF00BF144D6D68C1
:100B700005F0F0010909154D6B5C0568DD40456025
:100B80000F4D6D6805F4E061090A104D6B5C456816
:100B9000DD4085600A4D6D6805F46051C90A0B4D52
:100BA0006B5C4568DD40C560054D6D6805F44041EE
:100BB000890B074D6B5CC568B5FBF3F5056130BD6E
:100BC0000010024000127A0000093D0000000020E1
:100BD0001000002010B501460022002300204A1119
:100BE000012A02D1094C236806E0022A02D1074CEF
:100BF000236A01E0054C636A01F01F02012494405E
:100C00001C400CB1012000E0002010BD001002408B
:100C100001460020034A506820F0F000084350606D
:100C200070470000001002401149096821F480312A
:100C30000F4A11601146096821F480211160B0F556
:100C4000803F03D0B0F5802F0ED106E00849096837
:100C500041F48031064A116007E00549096841F412
:100C6000A021034A116000E000BF00BF70470000F0
:100C70000010024001460020034A506820F4E06062
:100C800008435060704700000010024001460020F9
:100C9000034A506820F4605040EAC1005060704739
:100CA00000100240014908667047000000004242FF
:100CB00002460020044B586820F47C1042EA0103ED
:100CC0001843014B58607047001002400146002055
:100CD000034A506820F0030008435060704700004A
:100CE0000010024038B5002000900024002500BF0D
:100CF0003120FFF76FFF05460098401C00900098D8
:100D0000B0F5A06F01D0002DF2D03120FFF762FFC7
:100D100008B1012400E00024204638BD70B5034628
:100D2000002007E01D58ACB20C542612451C4E554D
:100D3000841CA0B29042F5DB70BD70477FB50024E3
:100D400025E01948C27881784078174B1B7804F168
:100D50000F05164ECDE90030CDE90212755D303D2C
:100D6000114E735D04F10A05104E755D303D0E4E57
:100D7000725D651D0D4E755D303D0B4E715D0B4D09
:100D80002D5D303D705D00F0B3F8601CC4B2052CE1
:100D9000D7DB4FF480610648FFF7D1FD4FF4806147
:100DA0000348FFF7CEFD7FBD3C0000205800002027
:100DB000000C014070B505460E464FF48071104896
:100DC000FFF7BFFD00240BE000BF40210D4800F0FD
:100DD000ABFA0028F9D0295D0A4800F072FB641CC8
:100DE000B442F1D300BF4021064800F09DFA00282C
:100DF000F9D04FF480710248FFF7A1FD70BD0000EB
:100E0000000801400038014010B500F001F810BDA5
:100E10000CB50020019000903348006840F4803009
:100E20003149086000BF3048006800F4003000908D
:100E30000198401C0190009818B90198B0F5A06F76
:100E4000F1D12948006800F4003010B10120009071
:100E500001E0002000900098012843D12348006859
:100E600040F01000214908600846006820F00300A7
:100E700008600846006840F0020008601A484068B0
:100E8000194948600846406848600846406840F490
:100E9000806048600846406820F47C10486008463E
:100EA000406840F4E81048600846006840F08070F0
:100EB000086000BF0C48006800F000700028F9D0FE
:100EC0000948406820F00300074948600846406828
:100ED00040F00200486000BF0348406800F00C008A
:100EE0000828F9D10CBD000000100240002002408B
:100EF0002DE9F84F04460D4616461F46DDE90CABBA
:100F0000DDE90A890020009085E004F0800020B12E
:100F100001214448FFF715FD03E001214148FFF797
:100F20000EFD05F0800020B180213F48FFF709FD4C
:100F300003E080213C48FFF702FD06F0800020B16D
:100F400040213948FFF7FDFC03E040213648FFF718
:100F5000F6FC07F0800020B120213348FFF7F1FCB8
:100F600003E020213048FFF7EAFC08F0800020B1C0
:100F700010212D48FFF7E5FC03E010212A48FFF778
:100F8000DEFC09F0800020B102212748FFF7D9FCE0
:100F900003E002212448FFF7D2FC0AF0800028B1C8
:100FA0004FF480711F48FFF7CCFC04E04FF48071D0
:100FB0001C48FFF7C4FC0BF0800020B180211948C9
:100FC000FFF7BFFC03E080211648FFF7B8FC0221C1
:100FD0001448FFF7B6FC6006040E6806050E70069E
:100FE000060E7806070E4FEA48604FEA10684FEA8F
:100FF00049604FEA10694FEA4A604FEA106A4FEAC7
:101000004B604FEA106B02210648FFF798FC0098EE
:10101000401CC0B2009000980828FFF676AFBDE8EB
:10102000F88F0000000C01400008014070470000EC
:1010300010B51348006840F00100114908600846E7
:101040004068104908400E494860084600680E494B
:1010500008400B4908600846006820F480200860BA
:101060000846406820F4FE0048604FF41F00886086
:10107000FFF7CAFE4FF000600449086010BD000091
:10108000001002400000FFF8FFFFF6FE08ED00E050
:1010900010B50121064800F029F840B10548008844
:1010A000401C044908800121014800F010F810BDDF
:1010B000002C01401400002010B50121880700F029
:1010C00015F818B10121880700F001F810BDCA43D6
:1010D0000282704721B1028842F00102028004E0DE
:1010E00002884FF6FE731A400280704730B5024600
:1010F000002000230024158A05EA0103958905EAEA
:10110000010413B10CB1012000E0002030BD1AB180
:1011100083890B43838102E083898B4383817047FA
:10112000002202881D4B98420ED01D4B98420BD0D6
:10113000B0F1804F08D01B4B984205D01A4B984213
:1011400002D01A4B984204D14FF68F731A404B8845
:101150001A43174B984207D0164B984204D04FF6CB
:10116000FF431A40CB881A4302808B8883850B8803
:1011700003850A4B98420BD0094B984208D00E4B7E
:10118000984205D00D4B984202D00D4B984201D1A8
:101190000B7A03860123838270470000002C0140F4
:1011A000003401400004004000080040000C0040F2
:1011B0000010004000140040004001400044014085
:1011C0000048014010B540F22551094800F0B9F837
:1011D00068B1074800F070F9064908700121054818
:1011E000FFF7E8FD40F22551014800F034F810BD4A
:1011F000003801401600002010B540F225510E487D
:1012000000F09FF8B8B10C4800F056F90B490C4AB1
:10121000128888540A480088401C094908800846FA
:101220000088B0F5806F01DB0020088040F2255176
:10123000014800F010F810BD004400407800002084
:101240004800002001F40072B2F5007F00D100BF19
:10125000CA430280704710B50022002340F66A148A
:10126000A14200D100BF0A1201249440A3B2DC4382
:10127000048010BD21B1828942F40052828104E0D1
:1012800082894DF6FF731A408281704710B504467B
:101290002048844209D101218803FFF7FBFB00218C
:1012A0004FF48040FFF7F6FB32E01B48844209D13F
:1012B00001214804FFF7CEFB00214FF40030FFF777
:1012C000C9FB25E01548844209D101218804FFF7B4
:1012D000C1FB00214FF48020FFF7BCFB18E0104851
:1012E000844209D10121C804FFF7B4FB00214FF467
:1012F0000020FFF7AFFB0BE00A48844208D1012130
:101300000805FFF7A7FB00214FF48010FFF7A2FBB1
:1013100010BD00000038014000440040004800407B
:10132000004C00400050004002460020B1F5007F14
:1013300000D100BF13880B400BB1012000E000205A
:10134000704770B50246002400230025002040F6B7
:101350006A16B14200D100BFC1F3421501F01F036C
:10136000012606FA03F3012D02D19689334006E0E7
:10137000022D02D1168A334001E0968A33400C12C6
:10138000012606FA04F41688344013B10CB101208A
:1013900000E0002070BDF0B50346002400260025C3
:1013A000002040F66A17B94200D100BF1846C1F3C9
:1013B000421401F01F06012707FA06F5012C01D19E
:1013C0000C3004E0022C01D1103000E014301AB1CE
:1013D00007682F43076002E00768AF430760F0BD6E
:1013E0002DE9F04786B005460E460024A24600BF10
:1013F000A1460027B08900B100BF2F462C8A4CF6C9
:10140000FF700440F08804432C82AC894EF6F31040
:101410000440B08831890843718908430443AC8192
:10142000AC8A4FF6FF400440B0890443AC8201A867
:10143000FFF766FB1F48874202D1DDF810A001E0EC
:10144000DDF80CA0A88900F4004040B10AEBCA0006
:1014500000EB0A1031684900B0FBF1F807E00AEB35
:10146000CA0000EB0A1031688900B0FBF1F8642073
:10147000B8FBF0F004012009642101FB1089A88960
:1014800000F4004040B1322000EBC900B0FBF1F0A5
:1014900000F00700044308E0322000EB091064214B
:1014A000B0FBF1F000F00F0004432C8106B0BDE862
:1014B000F08700000038014001468888C0F308002A
:1014C0007047C1F308028280704700BFFEE7F0B5A5
:1014D00006460D461746002409E02B5D621CAA5CF7
:1014E00043EA0221301900F005F8A01C84B2BC4286
:1014F000F3DBF0BD0F4A126902F0800222B10E4AFE
:101500000C4B5A600D4A5A600A4A126942F00102B5
:10151000084B1A61018000BF064AD26802F001023E
:10152000002AF9D1034A126922F00102014B1A6123
:10153000704700000020024023016745AB89EFCDD2
:101540000FB4084B10B504A902AA039800F020F8C4
:10155000044602A9002000F0C5F8204610BC5DF842
:1015600014FB0000E51600080048704754000020F6
:1015700002E008C8121F08C1002AFAD1704770475C
:10158000002001E001C1121F002AFBD170470000BA
:101590002DE9FF4F89B09B460446002506E025282B
:1015A0000BD05A460B999047641C6D1C207800287C
:1015B000F5D10DB02846BDE8F08F0027B8460122CE
:1015C000474900E0074314F8013F203B02FA03F0CB
:1015D0000842F7D120782E2819D114F8010F47F0CE
:1015E00004072A280ED06FF02F022078A0F13001D6
:1015F00009290CD808EB880102EB410100EB010836
:10160000641CF2E70A98641C50F8048B0A90207856
:101610000028CED0642808D0692806D075281ED0AE
:101620005A460B9990476D1C58E00A994FF00A09E9
:1016300001C90A91002802DA40422D2102E0390551
:1016400004D52B218DF82010012103E0F90704D0E7
:101650002021F7E78A4608AE0DE00021FAE70A9953
:101660004FF00A0901C90A91F7E74946FEF79FFDC5
:10167000303106F8011D0028F7D1ADEB060000F16E
:101680002009780701D44FF00108C84502DDA8EB16
:10169000090000E000208046002706E008A85A461E
:1016A000C05D0B9990476D1C7F1C5745F6DB04E02D
:1016B00030205A460B9990476D1CB8F10001A8F1F3
:1016C0000108F5DC05E016F8010B5A460B99904726
:1016D0006D1CB9F10001A9F10109F4DC641C65E796
:1016E000092801000A68531C0B6010707047000045
:1016F00010B53048008830490988884258D02F48B2
:101700002C490988405C2E490870084600782A2830
:1017100006D12C480078082802DD002029490870ED
:10172000274800782849274A1278885425480078A5
:101730007F2804DA23480078401C2249087020489A
:1017400000780A2828D100201F491E4A12788854A0
:10175000084600782A2812D10846407831280ED150
:101760000846807830280AD10846C078302806D14B
:10177000084600792A2802D1084600F07DF80020AA
:1017800011490870487000210E480078401E0E4A2A
:10179000115400200B49087006480088401C054978
:1017A000088008460088B0F5806F01DB00200880C3
:1017B00010BD00004A0000204800002078000020F2
:1017C000460000204C00002078040020FEF70AFEAE
:1017D000FEF778FEFEF738FEFEF754FE4FF4C051D8
:1017E0002048FFF7ACF8FEF7E5FEFEF735FF2022B4
:1017F0001D491E48FFF792FA1B4800681C498842A1
:1018000002D90846184908601748406818498842B4
:1018100002D9084614494860134880681449884230
:1018200002D90846104988600F48C06810498842AC
:1018300002D908460C49C860FEF764FFFEF786FE31
:10184000FEF750FE0DE0FFF793F8FFF751FF094850
:101850000088B0F5FA7F04DB002006490880FFF716
:101860006DFAF0E7000801401C00002000F00008BD
:101870009F860100140000202DE9FF410446002549
:1018800060797C2846D1052223A12046FEF751FC31
:1018900000283FD1002622A1A01DFEF759FC0646D4
:1018A00010E03046FEF776FC29466A1CD5B21D4A88
:1018B00042F821001AA10020FEF74AFC0646082D36
:1018C00000DB01E0002EECD100BFFEF71BFFFEF7AE
:1018D00033FD1448406913490969124AD268114B13
:1018E0009B68CDE90032CDE902100E4843680EA195
:1018F00002681348FFF724FE1148FEF713FC074661
:1019000039460F48FFF756FA02210EA0FFF752FAA8
:10191000002500BFBDE8FF812A3130302A000000D9
:101920007C7C00007805002025642C2025642C2078
:1019300025642C2025642C2025642C20256400009F
:10194000980500200D0A0000004040404040404003
:101950004040414141414140404040404040404082
:101960004040404040404040400502020202020226
:101970000202020202020202022020202020202075
:101980002020200202020202020290909090909089
:101990001010101010101010101010101010101047
:1019A00010101010020202020202888888888888BB
:1019B00008080808080808080808080808080808A7
:1019C0000808080802020202400000004919000845
:1019D000F0190008000000205800000070150008F1
:1019E000481A000858000020C009000080150008AF
:1019F00000000000010203040102030406070809B5
:101A00000204060800000000000000009F8601009C
:101A10009F8601009F8601009F8601009F8601002E
:101A20009F8601009F8601009F860100FC61DBF21A
:101A300067B7BEE0FFF700000000000000000000F4
:081A400000000000000000009E
:04000005080000ED02
:00000001FF
